:03000000022BAF21
:0C2BAF00787FE4F6D8FD758133022BF628
:0332CA000211ED01
:0732C300AD077F0102329DFF
:0332CD00AF992294
:03000B0002303E82
:10303E00C0E0C0D075D000C000D3782AE694001846
:10304E00E6940040070806E618700106D3782AE6D3
:10305E00940518E69400400B782C760078297600BB
:0A306E00087600D000D0D0D0E03288
:10328D00120F8F123254E4FF12320B12245380FBB3
:0C32AB009000C4EEF0A3EFF0A3EDF022C1
:10327B009000CCEEF0A3EFF0A3EBF0A3EAF0A3E900
:02328B00F0222F
:10215C00EE6003022257EFB4200040030222579096
:10216C002172F82828730221D20221D60221DA0228
:10217C0021DE0221E20221E60221EA0221EE022105
:10218C00F20221F60221FA0221FE022202022206AA
:10219C0002220A02220E02221202221602221A0223
:1021AC00221E02222202222602222A02222E02228F
:1021BC003202223602223A02223E022242022246F7
:1021CC0002224A02224EA280807AA2818076A282CA
:1021DC008072A283806EA284806AA2858066A286A9
:1021EC008062A287805EA290805AA2918056A292B1
:1021FC008052A293804EA294804AA2958046A296C9
:10220C008042A297803EA2A0803AA2A18036A2A2D0
:10221C008032A2A3802EA2A4802AA2A58026A2A6E8
:10222C008022A2A7801EA2B0801AA2B18016A2B2F0
:10223C008012A2B3800EA2B4800AA2B58006A2B608
:10224C008002A2B7E43312057B8008740112057B6F
:06225C007F03227F002237
:0730AF0044021800000000BC
:1031B600EF4E601A900210E0FCA3E0FDED1D7001D9
:0E31C6001C144C70F7EF1F70011E144E70E6C3
:0131D40022D8
:0832680090013BE0FEA3E0FF32
:0A327000EF1FAC0670011E4C70F653
:01327A002231
:10319000900210E0FCA3E0FD1207CBE47B83FAF978
:1031A000F812060C900214120748900214E0C313A0
:0631B000FEA3E013FF2264
:10311100900213E06599600AE599F0E4900212F0DB
:103121008006900212E004F0900212E0C394E97468
:0C31310080948040060075C760000022FA
:0B2CA100900000EBF0A3EAF0A3E9F0C4
:102CAC009000C17401F0A37400F0A37403F09000C1
:102CBC0000E0F9A3E0FAA3E090013DC9F0A3EAF02B
:102CCC00A3E9F09000C1E0F9A3E0FAA3E090014081
:102CDC00C9F0A3EAF0A3E9F07B017A00792B122E5C
:102CEC00F09000C1E4F0A3F0A3F07B017A00792B03
:052CFC007F01023078A9
:1027BC00EF14601614602C14604D14606C147003CC
:1027CC000228502405600302287390FE02E0547E18
:1027DC004480F0E030E0F390FE00E054FCF090FE1A
:1027EC0003807A90FE04E0547E4480F0E030E0F305
:1027FC0090FE00E054FC4403F090FE02E4F090FEE6
:10280C0008F090FE03F02290FE08E0547E4480F025
:10281C00E030E0F390FE00E054FC4402F090FE0443
:10282C00E4F090FE02F0A3F02290FE03E0543E444C
:10283C0080F0E030E0F390FE00E054FC4401F090B6
:10284C00FE02801990FE03E0543E44C0F0E030E0FC
:10285C00F390FE00E054FC4401F090FE02E4F09092
:08286C00FE08F090FE04F022CA
:0C32B700EF90FE01700304F022EFF02203
:100F8F0043BA80AF9FE4FCFDFEC004A905AA06ABDF
:100F9F000778FBE6FFD000C3EF9BFFEE9AFEED99BB
:100FAF00FDEC98FCE47BF07AD2F9F812060CC3E45E
:100FBF009FFF74369EFE746E9DFD74019CFC900025
:100FCF00C41207489000C4E0FCA3E0FDA3E0FEA319
:100FDF00E0FFC00790FE01E0FBE4FAF9F8D007123A
:100FEF0006979000C41207487FC07EF67D577C009D
:100FFF009000C4E0F8A3E0F9A3E0FAA3E0FBC3126A
:10100F000737500D90021812075400546000021158
:10101F00BE7FC07E267D827C009000C4E0F8A3E0F6
:10102F00F9A3E0FAA3E0FBC3120737500D900218A3
:10103F00120754005B8D800211BE7F807EED7DAF65
:10104F007C009000C4E0F8A3E0F9A3E0FAA3E0FB72
:10105F00C3120737500D90021812075400A8C00092
:10106F000211BE7F807E2D7DE87C009000C4E0F8E9
:10107F00A3E0F9A3E0FAA3E0FBC3120737500D90EA
:10108F00021812075400B71B000211BE7F807E3674
:10109F007D257C019000C4E0F8A3E0F9A3E0FAA35A
:1010AF00E0FBC3120737500D9002181207540119B5
:1010BF0040000211BE7F807E567D417C019000C4AE
:1010CF00E0F8A3E0F9A3E0FAA3E0FBC3120737505F
:1010DF000D90021812075401312D000211BE7F002E
:1010EF007EDB7D5F7C019000C4E0F8A3E0F9A3E014
:1010FF00FAA3E0FBC3120737500D900218120754E2
:10110F00015180000211BE7F607E197D857C0190A8
:10111F0000C4E0F8A3E0F9A3E0FAA3E0FBC31207D1
:10112F0037500D900218120754016E36000211BE8F
:10113F007F207EE07DB27C019000C4E0F8A3E0F94F
:10114F00A3E0FAA3E0FBC3120737500C900218126A
:10115F000754019BFCC080577FE07EA67DE07C0199
:10116F009000C4E0F8A3E0F9A3E0FAA3E0FBC312F8
:10117F000737500C90021812075401C9C380802FF3
:10118F007F607E2B7DFF7C019000C4E0F8A3E0F927
:10119F00A3E0FAA3E0FBC31207379002185009121D
:1011AF00075401FA4000800712075402160EC0E4DC
:1011BF007B107A27F9F8900218E0FCA3E0FDA3E07A
:1011CF00FEA3E0FF120697900210EEF0A3EFF0E4FB
:0D11DF00900213F0900212F01230E1D2AF36
:0111EC0022E0
:0B26F7009000CBEBF0A3EAF0A3E9F0A9
:102702007F647E0012319090013BEEF0A3EFF090D7
:1027120001387401F0A37400F0A374CEF09000CBE2
:10272200E0F9A3E0FAA3E090013DC9F0A3EAF0A327
:10273200E9F0900138E0F9A3E0FAA3E0900140C982
:10274200F0A3EAF0A3E9F07B017A0079F8122EF007
:102752009000F6EEF0A3EFF0900138E4F0A3F0A3BE
:10276200F07FF47E011231B6E4FBFAD39000F7E079
:102772009B9000F6E09A40E9D2B1C2B1123268747D
:10278200F82BF58274003AF583E0F9E4FDEDC39489
:1027920008748094805014E930E004D2B18002C2FF
:1027A200B1E9C313F91232680D80E2D2B112326874
:0A27B2001232680BBB00010A80B16F
:0B29D40090021CEBF0A3EAF0A3E9F076
:1029DF00E4FFFE900222F0A3F0A3F0A3F090021CFC
:1029EF00E0FBA3E0FAA3E0F912053560779002252A
:1029FF00E004F07006900224E004F090021FE0FB68
:102A0F00A3E0FAA3E0F98F828E8312054EFD9002A8
:102A1F001CE0FBA3E0FAA3E0F9120535B505070F9B
:102A2F00BF00010E8012E4FEFF900224E0FDA3E040
:102A3F00900222CDF0A3EDF090021DE475F001128B
:102A4F0005C190021FE0FBA3E0FAA3E0F98F828E8D
:102A5F008312054EFD3395E04D7082900222E0FE09
:082A6F00A3E0FF227EFF7FFFC0
:012A7700223C
:10254000E4900234F0900236F0900235F0900235BB
:10255000E0C3940A748094804003022622E07E0047
:102560002DF582EE3CF58312054EFF3395E0FEC358
:10257000EF9430EE648094804052D3EF9437EE6451
:102580008094805047900236E004F0E064017019B6
:10259000900235E07E002DF582EE3CF58312054E6B
:1025A00024D0C454F0900234F0900236E0640270FB
:1025B0001B900235E07E002DF582EE3CF58312057E
:1025C0004E24D0FF900234E04FFFF022900235E01D
:1025D0007E002DF582EE3CF58312054EFF3395E02B
:1025E000FEC3EF9438EE648094804011D3EF9439A9
:1025F000EE648094805006900236E004F09002353C
:10260000E07E002DF582EE3CF58312054EFF642C32
:102610006010EF3395E04F6009900235E004F0025E
:07262000254D900234E0FF9C
:012627002290
:0826280090022FECF0A3EDF08D
:10263000E4A3F0A3F0A3F0900233E0FFC39414747A
:1026400080948040030226EE900230E02FFF90023B
:102650002FE034008F82F58312054EFF3395E0FEA4
:10266000C3EF9430EE648094804051D3EF9439EE00
:10267000648094805046900231E0FEA3E0FF7C002D
:102680007D0A1205AF900231EEF0A3EFF0A3E0FF58
:10269000900230E02FFF90022FE034008F82F5830C
:1026A00012054EFF3395E0FEEF24D0FFEE34FFFE1F
:1026B000900232E02FF0900231E03EF0900233E0E1
:1026C000FF900230E02FFF90022FE034008F82F560
:1026D0008312054EFF642C6015EF642E6010EF33FB
:1026E00095E04F6009900233E004F0022637900233
:0626F00031E0FEA3E0FF53
:0126F60022C1
:101E0E009001FEEBF0A3EAF0A3E9F0A3ECF0A3ED52
:011E1E00F0D3
:101E1F00E490020AF0A3F0A3F0A3F0A3F0A3F090D4
:101E2F000208F0A3F0900201E0FEA3E0FF90020889
:101E3F00E0FCA3E0FDC39FEC9E4003021EDE900278
:101E4F0003E0FBA3E0FAA3E0F990020AE0FEA3E0AF
:101E5F00F5828E8312054EFF9001FEE0FBA3E0FAA0
:101E6F00A3E0F98D828C8312054EB5073390020BD8
:101E7F00E004F0700690020AE004F0900206E0FE23
:101E8F00A3E0FF90020AE0B50631A3E0B5072C905E
:101E9F000208E0FFA3E090020ECFF0A3EFF0802F37
:101EAF00E490020AF0A3F0900209E02401FE9002F0
:101EBF0008E0340090020CF0A3CEF0900209E00489
:101ECF00F06003021E34900208E004F0021E34900A
:101EDF00020EE0FEA3E0FF90020CE0FCA3E0FDD3B6
:101EEF009FEC9E5044900208ECF0A3EDF090020E90
:101EFF00E0FEA3E0FF900208E0FCA3E0FDC39FEC2F
:101F0F009E50239001FEE0FBA3E0FAA3E0F98D823F
:101F1F008C83E412058D900209E004F070CF9002DB
:0B1F2F0008E004F080C77F01227F0063
:011F3A002284
:101967006770696F5F757070756C6C283C442530C3
:1019770032583E2C2564293BB2BBB4E6D4DAB8C34F
:10198700494F0D0A006770696F5F757070756C6CF1
:10199700283C44253032583E2C31293BB2BBB4E6B3
:1019A700D4DAB8C3494F0D0A006770696F5F757065
:1019B70070756C6C283C44253032583E2C30293BDE
:1019C700B2BBB4E6D4DAB8C3494F0D0A00677069F1
:1019D7006F5F6D6F6465283C44253032583E2C2577
:1019E70064293BB2BBB4E6D4DAB8C3494F0D0A0049
:1019F7006770696F5F6D6F64652844253032582CB6
:101A07003C25643E293BB2BBB4E6D4DAB8C3C4A3D1
:101A1700CABD0D0A006770696F5F777269746528C0
:101A27003C25643E2C2564293BB2BBB4E6D4DAB826
:101A3700C350BFDA0D0A006770696F5F7265616432
:101A4700283C5025643E293BB2BBB4E6D4DAB8C380
:101A570050BFDA0D0A006770696F5F6F7574283CB5
:101A670044253032583E2C2564293BB2BBB4E6D41A
:101A7700DAB8C3494F0D0A006770696F5F6F7574F5
:101A8700283C44253032583E2C31293BB2BBB4E6C2
:101A9700D4DAB8C3494F0D0A006770696F5F6F7575
:101AA70074283C44253032583E2C30293BB2BBB415
:101AB700E6D4DAB8C3494F0D0A006770696F5F69EA
:101AC7006E283C44253032583E293BB2BBB4E6D49D
:101AD700DAB8C3494F0D0A006770696F5F746F67A3
:101AE700676C65283C44253032583E293BB2BBB46D
:101AF700E6D4DAB8C3494F0D0A00010204081020E2
:021B070040801C
:0A1F3B0090023EEDF090023DEFF041
:101F45006488700302204CE0FF54F0F50DEF540F48
:101F5500FF901B0193F50ED3EF9407748094804096
:101F6500237BFF7A19796790023DE0FF9000CEE46C
:101F7500F0A3EFF090023EE0FF9000D0E4F0A3EF75
:101F8500F01226F790023EE06055E50D24F0602141
:101F950024F0602224F0602324F0602424F06025DE
:101FA50024F0602624F060272470702B90FE1080AA
:101FB5002190FE11801C90FE12801790FE13801256
:101FC50090FE14800D90FE15800890FE16800390FB
:101FD500FE17E0450EF0227BFF7A19798C8058E5D3
:101FE5000D24F0602124F0602224F0602324F060A9
:101FF5002424F0602524F0602624F06027247070E6
:102005003090FE10802190FE11801C90FE128017EA
:1020150090FE13801290FE14800D90FE158008909E
:10202500FE16800390FE17E0FFE50EF4FEEF5EF06E
:10203500227BFF7A1979B090023DE0FF9000CEE453
:07204500F0A3EFF01226F7F3
:01204C002271
:0A0C7B009000CAEDF09000C9EFF000
:100C850064887003020F8EE0FF54F0F50DEF540FEA
:100C9500FF901B0193F50ED3EF9407748094804069
:100CA500237BFF7A1979D49000C9E0FF9000CEE448
:100CB500F0A3EFF09000CAE0FF9000D0E4F0A3EFBE
:100CC500F01226F7E50D24F0602124F0602224F0CF
:100CD500602324F0602424F0602524F0602624F0AD
:100CE500602724707028E4F50D8046750D0180415C
:100CF500750D02803C750D038037750D04803275C6
:100D05000D05802D750D068028750D0780237BFF49
:100D15007A1979D49000C9E0FF9000CEE4F0A3EFF2
:100D2500F09000CAE0FF9000D0E4F0A3EFF01226A7
:100D3500F79000CAE0FFD3940374809480401C7B35
:100D4500FF7A1979F79000C9E0FD9000CEE4F0A391
:100D5500EDF0A3E4F0A3EFF01226F7E50D70409057
:100D650000CAE0FF7E007007E50EF452935294EF3F
:100D750064014E7009E50E4293E50EF4529490001D
:100D8500CAE064027008E50E4293E50E42949000B5
:100D9500CAE064037009E50EF45293E50E4294E54A
:100DA5000D640170409000CAE0FF7E007007E50EFB
:100DB500F452915292EF64014E7009E50E4291E5AD
:100DC5000EF452929000CAE064027008E50E42915A
:100DD500E50E42929000CAE064037009E50EF452F4
:100DE50091E50E4292E50D640270409000CAE0FF65
:100DF5007E007007E50EF452955296EF64014E7031
:100E050009E50E4295E50EF452969000CAE064029B
:100E15007008E50E4295E50E42969000CAE064031F
:100E25007009E50EF45295E50E4296E50D640370E2
:100E3500409000CAE0FF7E007007E50EF452B15203
:100E4500B2EF64014E7009E50E42B1E50EF452B2FF
:100E55009000CAE064027008E50E42B1E50E42B2A8
:100E65009000CAE064037009E50EF452B1E50E4244
:100E7500B2E50D640470409000CAE0FF7E00700783
:100E8500E50EF452B352B4EF64014E7009E50E421B
:100E9500B3E50EF452B49000CAE064027008E50EA2
:100EA50042B3E50E42B49000CAE064037009E50E52
:100EB500F452B3E50E42B4E50D640570409000CAE6
:100EC500E0FF7E007007E50EF452C952CAEF6401D7
:100ED5004E7009E50E42C9E50EF452CA9000CAE00B
:100EE50064027008E50E42C9E50E42CA9000CAE0E8
:100EF50064037009E50EF452C9E50E42CAE50D64B6
:100F05000670409000CAE0FF7E007007E50EF452BF
:100F1500CB52CCEF64014E7009E50E42CBE50EF4E1
:100F250052CC9000CAE064027008E50E42CBE50E93
:100F350042CC9000CAE064037009E50EF452CBE59B
:100F45000E42CCE50D640770409000CAE0FF7E00BC
:100F55007007E50EF452E152E2EF64014E7009E5C7
:100F65000E42E1E50EF452E29000CAE06402700818
:100F7500E50E42E1E50E42E29000CAE06403700925
:090F8500E50EF452E1E50E42E232
:010F8E002240
:102D0100EFB40900503A902D0EF8282873022D29AE
:102D1100022D2C022D2F022D32022D35022D3802CB
:102D21002D3B022D3E022D5A8D80228D90228DA0A9
:102D3100228DB0228DC0228DC8228DE8228DF822ED
:102D41007BFF7A1A791C9000CEE4F0A3EFF0AF0577
:0A2D5100A3E4F0A3EFF01226F7222E
:102D5B00EFB40900503D902D68F8282873022D839D
:102D6B00022D86022D89022D8C022D8F022D9202AF
:102D7B002D95022D98022D9BAF8022AF9022AFA0F4
:102D8B0022AFB022AFC022AFC822AFE822AFF822E9
:102D9B007FFF227BFF7A1A793E9000CEE4F0A3EFFF
:072DAB00F01226F77FFF2262
:0A204D00900240EDF090023FEFF02A
:102057006488700302215BE0FF54F0F50DEF540F25
:10206700FF901B0193F50ED3EF9407748094804083
:10207700237BFF7A1A795D90023FE0FF9000CEE460
:10208700F0A3EFF0900240E0FF9000D0E4F0A3EF60
:10209700F01226F7900240E06052E50D24F060212F
:1020A70024F0602224F0602324F0602424F06025CB
:1020B70024F0602624F0602724707028E50E428003
:1020C70022E50E429022E50E42A022E50E42B02202
:1020D700E50E42C022E50E42C822E50E42E822E59F
:1020E7000E42F8227BFF7A1A797F8058E50D24F09B
:1020F700602224F0602424F0602624F0602824F075
:10210700602A24F0602C24F0602E24707030E50ED5
:10211700F4528022E50EF4529022E50EF452A022EA
:10212700E50EF452B022E50EF452C022E50EF45249
:10213700C822E50EF452E822E50EF452F8227BFF9E
:102147007A1A79A090023FE0FF9000CEE4F0A3EF67
:04215700F01226F765
:01215B002261
:05292A00900241EFF0F6
:10292F0064887002FF22900241E0FF54F0F50DEF32
:10293F00540FFF901B0193F50ED3EF9407748094FF
:10294F008040167BFF7A1A79C1900241E0FF900018
:10295F00CEE4F0A3EFF01226F7E50D24F06021246A
:10296F00F0602224F0602324F0602424F0602524FA
:10297F00F0602624F060272470702885800F80393E
:10298F0085900F803485A00F802F85B00F802A850A
:10299F00C00F802585C80F802085E80F801B85F824
:1029AF000F80167BFF7A1A79C1900241E0FF9000E9
:1029BF00CEE4F0A3EFF01226F7E50F550E60037F7C
:0429CF0001227F0062
:0129D30022E1
:052A7800900242EFF0A6
:102A7D0064887003022B14E0FF54F0F50DEF540F32
:102A8D00FF901B0193F50ED3EF9407748094804053
:102A9D00167BFF7A1A79DF900242E0FF9000CEE4B8
:102AAD00F0A3EFF01226F7E50D24F0602124F0607D
:102ABD002224F0602324F0602424F0602524F060AB
:102ACD002624F0602724707028E50E628022E50E22
:102ADD00629022E50E62A022E50E62B022E50E6242
:102AED00C022E50E62C822E50E62E822E50E62F80C
:102AFD00227BFF7A1A79DF900242E0FF9000CEE44C
:072B0D00F0A3EFF01226F720
:012B1400229E
:102F3A00EFB40800503E902F47F8282873022F5FFD
:102F4A00022F63022F67022F6B022F6F022F730269
:102F5A002F77022F7BED628022ED629022ED62A034
:102F6A0022ED62B022ED62C022ED62C822ED62E873
:052F7A0022ED62F822C7
:102B1500A907EB6048E9B408004003022BAE902BEF
:102B25002AF8282873022B42022B46022B4A022B35
:102B35004E022B52022B56022B5A022B5EED42807F
:102B450022ED429022ED42A022ED42B022ED42C09C
:102B550022ED42C822ED42E822ED42F822E9B4080E
:102B6500005046902B6FF8282873022B87022B8C78
:102B7500022B91022B96022B9B022BA0022BA50266
:102B85002BAAEDF4528022EDF4529022EDF452A0DE
:102B950022EDF452B022EDF452C022EDF452C822D7
:0A2BA500EDF452E822EDF452F8229C
:102DB200EFB409005045902DBFF8282873022DDA90
:102DC200022DDE022DE2022DE6022DEA022DEE0296
:102DD2002DF2022DF6022DFAAE80801FAE90801BDE
:102DE200AEA08017AEB08013AEC0800FAEC8800B0D
:102DF200AEE88007AEF880037F0122EE5D60037FBC
:042E020001227F002A
:012E060022A9
:08000300303136371617434473
:1030E10075985053873F538EDEE4FD7F01122E58B1
:1030F1009000C91207540001C2007F01122F7F43C3
:103101008E4053890FC2ABC28FD28EC209D2AC227C
:102E58009000C8EDF0EF1470449000C8E0FF54C033
:102E6800FEE5A2543F4EF5A2EFC41313540325E028
:102E78002403F582E43400F583E493FFE4FD120CA7
:102E88007B9000C8E0C41313540325E02404F582A2
:0E2E9800E43400F583E493FF7D03120C7B22EB
:052F7F009000C8EFF016
:102F8400E47B04FAF9F8900218E0FCA3E0FDA3E066
:102F9400FEA3E0FF1206979000C9E0F8A3E0F9A3AE
:102FA400E0FAA3E0FB120697C3E49FFFE49EFE90C1
:0B2FB40000C8E01470058F8BEEF58D57
:012FBF0022EF
:0E329D00EF147009AF058F99D2092009FD22A8
:1031D500EF147016EB6006D29BD29B8004C29BC293
:0B31E5009BAF058F99D2092009FD2245
:10307800900237EBF0A3EAF0A3E9F0AE079002372D
:10308800E0FBA3E0FAA3E0F91205356019AF06905A
:103098000237A3E475F0011205D7A9F0FA12053535
:0730A800FD12329D80D722CA
:0E2C3B00900173EFF0A3EBF0A3EAF0A3E9F031
:102C49009001BF7401F0A37401F0A37477F09001AF
:102C590074E0F9A3E0FAA3E090013DC9F0A3EAF01A
:102C6900A3E9F09001BFE0F9A3E0FAA3E0900140E5
:102C7900C9F0A3EAF0A3E9F07B017A01799F122E4A
:102C8900F09001BFE4F0A3F0A3F0900173E0FF7BA3
:082C9900017A01799F023078F5
:03002300022EA604
:102EA600C0E0C0F0C083C082C0D075D000C000C0F2
:102EB60001C002C003C004C005C006C007309808A0
:102EC600C2981232CA123111309904C299C209D07D
:102ED60007D006D005D004D003D002D001D000D050
:0A2EE600D0D082D083D0F0D0E032CB
:1022620074696D65725F7374617274283C25643E93
:10227200293BB4EDCEF3B5C449440D0A0074696D2F
:1022820065725F73746F70283C25643E293BB4ED20
:10229200CEF3B5C449440D0A0074696D65725F6F6F
:1022A2007574283C25643E2C31293BB4EDCEF3B540
:1022B200C449440D0A0074696D65725F6F757428B4
:1022C2003C25643E2C30293BB4EDCEF3B5C44944E1
:1022D2000D0A00C7EBCAE4C8EBB4F3D3DA30757366
:1022E2002CD0A1D3DA25757573B5C4CAB1BCE40D7F
:1022F2000A0074696D65725F7365745F74696D65F8
:10230200725F6D6F6465283C25643E2C2575293B00
:10231200B4EDCEF3B5C449440D0A0074696D65721B
:102322005F7365745F76616C7565283C25643E2C2D
:102332002575293BB4EDCEF3B5C449440D0A0074AA
:10234200696D65725F7365745F76616C7565283C53
:1023520025643E293BB4EDCEF3B5C449440D0A00D1
:10320B00EF7005C28DD28C227BFF7A2279629000FF
:0A321B00CEE4F0A3EFF01226F72234
:10322500EF7003C28C227BFF7A22797F9000CEE477
:08323500F0A3EFF01226F722CE
:102FC000900243EFF0ED6012E07007438F017D0344
:102FD00080137BFF7A22799B8016900243E0700A6F
:102FE000538FFEE4FD7F35020C7B7BFF7A2279B89C
:102FF000900243E0FF9000CEE4F0A3EFF01226F73A
:0130000022AD
:10325400E58E547F4480F58E5389F0758A40758CD1
:04326400A2D2A92227
:0B15EA00900226EFF0A3ECF0A3EDF060
:1015F500900218E0FCA3E0FDA3E0FEA3E0FFE412E7
:1016050001CC7B007A247974784912012FA804A9AA
:1016150005AA06AB077F007EFF7D7F7C4712012F61
:1016250012020A90022BEEF0A3EFF07F007E1B7DE5
:10163500B77C00900218E0F8A3E0F9A3E0FAA3E074
:10164500FBD3120737500A74FF90022DF0A3F080E8
:101655003B900218E0FCA3E0FDA3E0FEA3E0FFE45D
:101665001201CC7B007A1B7937784B12012FA80425
:10167500A905AA06AB077F007EFF7D7F7C47120187
:101685002F12020A90022DEEF0A3EFF090022BE04C
:10169500FEA3E0FF900227E0FCA3E0FDD39FEC9EB4
:1016A5005010ED9400EC94004008A3E4F0A304F07E
:1016B500804090022DE0FEA3E0FFD3ED9FEC9E500D
:1016C50019900228E09400900227E09400400B90C6
:1016D5000229E4F0A3740CF080187BFF7A2279D5F7
:1016E50090022DE0FFA3E09000CECFF0A3EFF01223
:1016F50026F7900226E06003021798900229E07011
:1017050004A3E064017017438E80900218E0FCA3E7
:10171500E0FDA3E0FEA3E0FFE41201CC802B9002E4
:1017250029E07004A3E0640C7059538E7F90021871
:10173500E0FCA3E0FDA3E0FEA3E0FFE41201CCE49E
:10174500FBFA7940784112012F7B007A247974786D
:101755004912012FC004C005C006C007900227E04A
:10176500FCA3E0FDE41201D1D003D002D001D000EA
:1017750012002612020AC3E49FFFE49E900229F09C
:10178500A3EFF0900229E0FEA3E0F58AEEF58C5375
:1017950089FB227BFF7A2279F4900226E0FF9000F4
:1017A500CEE4F0A3EFF0900227E0FFA3E09000D095
:0817B500CFF0A3EFF01226F7BC
:0117BD002209
:10313D00900244EFF070068D8AECF58C227BFF7ABD
:10314D0023791D900244E0FF9000CEE4F0A3EFF050
:0C315D00AF05A3ECF0A3EFF01226F72260
:0530010090023AEFF01F
:10300600E4A3F0A3F0EF7011AF8CEFFFAD8AED9063
:10301600023BCFF0A3EFF080167BFF7A2379419035
:10302600023AE0FF9000CEE4F0A3EFF01226F7900C
:07303600023BE0FEA3E0FFF6
:01303D002270
:1030B600022FFFFF012C00013301013200012B001A
:1030C60002260000022D0000022400000229000052
:0A30D6000222FFFF01310001280073
:0F2E07007826E6FF08E6CFF0A3EFF07833E6FF7A
:102E1600782FE6F608E66FF6E4FDEDC394087480B5
:102E26009480502D782FE6FE08E6FF30E013EEC3BF
:102E360013FEEF13FFEE64A018F6EF640108F680A8
:102E46000D782FE6C313792FF708E61309F70D80DF
:012E5600C9B2
:012E57002258
:10000E00EF24FC600B240324FA500424F770012221
:05001E00EF2480FF2229
:10323D00EF25E0FFEE33FE74C22FF58274013EF5EB
:07324D0083ECF0A3EDF02279
:1031F000EF25E0FFEE33FE74C22FF58274013EF539
:0B32000083E0FFA3E0CF8FF00205ED9C
:1013F90074FF782FF608F6782DE6FE08E6FFC39409
:1014090001EE940050030215B4D3EF94D0EE940783
:1014190040030215B47826E6FE08E6FFE4FCFDC0A9
:1014290004A905AA06AB07782DE6FE08E6FFD00059
:10143900EF2BFFEE3AFEED39FDEC38FCE4FBFA79CF
:1014490001F8C3120737500302158B7826E6FE0808
:10145900E6FFEE94004012EF782E26FFEE1836FED6
:10146900D3EF9418EE9400402A782B76047828E676
:1014790070030215E9122E127F81122E167F0412B3
:101489002E167833E6FF1232C37F811232C37F04EE
:101499000215AF7828E670030215E9782DE6FC08F5
:1014A900E6FDAE047803CEC313CE13D8F99000C578
:1014B900F0ED54076003E004F09000CA122E077F94
:1014C90001122E169000C5E0FF122E167833E6FFA2
:1014D9001232C37F011232C39000C5E0FF1232C33A
:1014E900E49000C7F09000C5E0FF9000C7E0C39FFB
:1014F90040030215DBE49000C4F0782DE6FE08E60F
:10150900FFC39408EE94009000C640057408F0806B
:1015190002EFF0E49000C8F09000C6E0FF9000C828
:10152900E0C39F50399000CAE475F0011205D7AFA6
:10153900F0FE7B017A0079C912327B9000C4E0FF8A
:101549009000C8E0FEA3E0FDA806088002C333D8D6
:10155900FC4F9000C4F09000C8E004F080BA9000FD
:10156900C4E0FF122E16E0FF1232C39000C6E0FF5E
:10157900C3782EE69FF618E69400F6A3E004F0027D
:1015890014EE782B76027828E66055122E127F81A8
:10159900122E167F02122E167833E6FF1232C37FFF
:1015A900811232C37F021232C38027782B760378E7
:1015B90028E6602C122E127F81122E167F03122E1E
:1015C900167833E6FF1232C37F811232C37F0312CA
:1015D90032C37830E6FF1232C3782FE6FF1232C3E6
:0115E90022DF
:1017BE0074FF782FF608F6782DE6FE08E6FFC39440
:1017CE0001EE94005003021931D3EF94D0EE94073A
:1017DE0040030219317826E6FE08E6FFE4FCFDC060
:1017EE0004A905AA06AB07782DE6FE08E6FFD00091
:1017FE00EF2BFFEE3AFEED39FDEC38FCE4FBFA7907
:10180E0001F8C312073750030219087828E670034F
:10181E00021966782DE6FC08E6FDAE047803CEC309
:10182E0013CE13D8F99000C5F0ED54076003E00411
:10183E00F09000CA122E077F02122E169000C5E0FD
:10184E00FF122E167833E6FF1232C37F021232C316
:10185E009000C5E0FF1232C3E49000C7F09000C5BF
:10186E00E0FF9000C7E0C39F4003021958E49000C8
:10187E00C4F0782DE6FE08E6FFC39408EE940090BF
:10188E0000C640057408F08002EFF0E49000C8F046
:10189E009000C6E0FF9000C8E0C39F50399000CA88
:1018AE00E475F0011205D7AFF0FE7B017A0079C91D
:1018BE0012215C9000C4E0FF9000C8E0FEA3E0FDA2
:1018CE00A806088002C333D8FC4F9000C4F09000E5
:1018DE00C8E004F080BA9000C4E0FF122E16E0FFBC
:1018EE001232C39000C6E0FFC3782EE69FF618E6CC
:1018FE009400F6A3E004F002186B782B7602782899
:10190E00E66055122E127F82122E167F02122E16AE
:10191E007833E6FF1232C37F821232C37F02123255
:10192E00C38027782B76037828E6602C122E127F40
:10193E0082122E167F03122E167833E6FF1232C352
:10194E007F821232C37F031232C37830E6FF123227
:08195E00C3782FE6FF1232C32B
:01196600225E
:101B090074FF782FF608F6782DE6FE08E6FFC394F1
:101B190001EE94005003021C5CD3EF947DEE940017
:101B29004003021C5C7826E6FE08E6FFE4FCFDC0E3
:101B390004A905AA06AB07782DE6FE08E6FFD00042
:101B4900EF2BFFEE3AFEED39FDEC38FCE4FBFA79B8
:101B590001F8D31207375003021C337826E6FE0832
:101B6900E6FFEE94004012EF782E26FFEE1836FEBF
:101B7900D3EF9414EE9400402A782B76047828E663
:101B89007003021C91122E127F83122E167F0412EB
:101B99002E167833E6FF1232C37F831232C37F04D5
:101BA900021C577828E67003021C91122E127F033B
:101BB900122E16782EE625E0FF122E167833E6FF50
:101BC9001232C37F031232C3782EE625E0FF1232A8
:101BD900C3E49000C6F0A3F09000C6E0FEA3E0FFC6
:101BE900C3782E96EE18965068EF782726FFEE18E0
:101BF90036FE7B017A0079C41231F09000C4E0FF0F
:101C0900122E16A3E0FF122E169000C4E0FF123226
:101C1900C39000C4A3E0FF1232C39000C7E004F0F0
:101C290070B69000C6E004F080AE782B7602782872
:101C3900E66055122E127F83122E167F02122E167F
:101C49007833E6FF1232C37F831232C37F02123226
:101C5900C38027782B76037828E6602C122E127F12
:101C690083122E167F03122E167833E6FF1232C323
:101C79007F831232C37F031232C37830E6FF1232F8
:081C8900C3782FE6FF1232C3FD
:011C91002230
:1023620074FF782FF608F6782DE6FE08E6FF4E6039
:102372000AEF7002EEF4600302241D7826E6FE08DE
:10238200E6FFC3EE94004008EF9418EE9400402A52
:102392007828E67003022452782B7604122E127FDC
:1023A20085122E167F04122E167833E6FF1232C3E0
:1023B2007F851232C37F04022441782DE6FD782600
:1023C200E6FE08E6FF1232AB7828E67003022452DA
:1023D200122E127F05122E167826E6FF122E16787E
:1023E20027E6FF122E16782DE6FF122E16782EE61D
:1023F200FF122E167833E6FF1232C37F051232C364
:102402007826E6FF1232C37827E6FF1232C3782D10
:10241200E6FF1232C3782EE6FF8024782B7603780B
:1024220028E6602C122E127F85122E167F03122EA2
:10243200167833E6FF1232C37F851232C37F03124E
:1024420032C37830E6FF1232C3782FE6FF1232C36E
:012452002267
:1028740074FF782FF608F67826E6FE08E6FFC3EE26
:1028840094004008EF9414EE940040297828E670F0
:1028940003022929782B7604122E127F86122E1613
:1028A4007F04122E167833E6FF1232C37F8612326B
:1028B400C37F04805F7826E6FE08E6FF782DE6FCF9
:1028C40008E6FD12323D7828E6605A122E127F0681
:1028D400122E167826E6FF122E167827E6FF122E01
:1028E40016782DE6FF122E16782EE6FF122E167895
:1028F40033E6FF1232C37F061232C37826E6FF1294
:1029040032C37827E6FF1232C3782DE6FF1232C3B2
:10291400782EE6FF1232C37830E6FF1232C3782FE6
:06292400E6FF1232C3229F
:101C920074FF782FF608F6782DE6FE08E6FFC39467
:101CA20001EE94005003021DD8D3EF947BEE940012
:101CB2004003021DD818E6FE08E6FFE4FCFDC0045E
:101CC200A905AA06AB077826E6FE08E6FFD000EFD4
:101CD2002BFFEE3AFEED39FDEC38FCE4FBFA79011C
:101CE200F8D31207375003021DB27826E6FE08E643
:101CF200FFEE94004012EF782E26FFEE1836FED348
:101D0200EF9414EE9400402A7828E67003021E0D28
:101D1200782B7604122E127F90122E167F04122E2A
:101D2200167833E6FF1232C37F901232C37F040269
:101D32001DFCE4F97831E6FFE9C39F5020E925E074
:101D420024EAF582E43401F583E0FCA3E0FDE978BE
:101D52002726FFE41836FE12323D0980D77828E69E
:101D62007003021E0D122E127F10122E167826E616
:101D7200FF122E167827E6FF122E16782DE6FF1296
:101D82002E16782EE6FF122E167833E6FF1232C395
:101D92007F101232C37826E6FF1232C37827E6FF9D
:101DA2001232C3782DE6FF1232C3782EE6FF804A44
:101DB200782B76027828E66052122E127F90122E2D
:101DC200167F02122E167833E6FF1232C37F90126C
:101DD20032C37F028024782B76037828E6602C12A7
:101DE2002E127F90122E167F03122E167833E6FFE4
:101DF2001232C37F901232C37F031232C37830E6AD
:0B1E0200FF1232C3782FE6FF1232C33C
:011E0D0022B2
:1011ED00782976000876011232CDAD07782CE612FB
:1011FD0007A5122400125F0312A20612C00712DE09
:10120D000812FC0913350B13290C13850F13AE109F
:10121D00135511000013F87833E66D6006ED600389
:10122D00F4702A782C7603ED6003F47006E47828C8
:10123D00F6800478287601E47832F6782BF674FF80
:10124D007822F608F6782FF608F60213E5782C7654
:10125D000222EDD3947F748094804006782C76041E
:10126D00801AAF0512000E7832EFF6D3947F74809A
:10127D009480400CE6547FF6782C76051876012282
:10128D00782C76067822E6FE08E6FF782FA606086B
:10129D00A6070213E5EDF8E47927F7E819F7782C9E
:1012AD0076077822E6FE08E6FF782FA60608A60741
:1012BD000213E5ED782726F618E436F6782C760835
:1012CD007822E6FE08E6FF782FA60608A607021389
:1012DD00E5EDF8E4792EF7E819F7782C7609782200
:1012ED00E6FE08E6FF782FA60608A6070213E5ED31
:1012FD00782E26F618E436F67832E6641070081863
:10130D00F6782C76118004782C760C7822E6FE087F
:10131D00E6FF782FA60608A6070213E5ED782476DA
:10132D000008F6782C760B22EDFE7825E426F618CB
:10133D00EE36F67925E71866700419E71866782CED
:10134D007003760E22760D227831EDF6600A782E36
:10135D00E625E07831666008782B76030876122250
:10136D00E47831F6782C760F7822E6FE08E6FF78E1
:10137D002FA60608A6078060EDFE7831E625E0244D
:10138D00EAF582E43401F583EEF0A3E4F0782C76EF
:10139D00107822E6FE08E6FF782FA60608A607803D
:1013AD0037EDFF7831E625E024EAF582E43401F5E6
:1013BD0083E48FF01205C1783106782EE678316618
:1013CD00782C7004760C8002760F7822E6FE08E603
:1013DD00FF782FA60608A607AF05122E16782FE662
:0B13ED00FE08E6FF7822A60608A6070F
:0113F80022D2
:10245300782CE624FE606024FD601524F86058148F
:10246300605824FC70030224F7240E600302253F06
:102473007828E6604274FF782FF608F6122E127859
:1024830032E62480FF122E16782BE6FF122E1678E2
:1024930033E6FF1232C37832E62480FF1232C37868
:1024A3002BE6FF1232C37830E6FF1232C3782FE6F1
:1024B300FF1232C302253B02253B7832E624FE603D
:1024C3001714601924FE601A14601C24F6601D247E
:1024D3000F701C1213F980171217BE8012121B09FA
:1024E300800D12236280081228748003121C92E468
:1024F300782CF6227828E6603F74FF782FF608F6EA
:10250300122E127832E62480FF122E16782BE6FF65
:10251300122E167833E6FF1232C37832E62480FF98
:102523001232C3782BE6FF1232C37830E6FF123241
:0D253300C3782FE6FF1232C3782C76012208
:10002600EC4D6011E8497017ED33EC3304600DE4D4
:10003600FCFFFEFD22E933E8330470F80202761273
:10004600024158046009E4CC248150062850090274
:10005600028028400302027DC0E0EB4A7044B9806A
:1000660006D0E0FB02026CEF4E701CBD8008EBFF71
:10007600EAFEE9FD80EBE98DF0A4FEE5F002010F52
:10008600E9CDF9EAFEEBFFEF89F0A4FCE5F0CE89B5
:10009600F0A42EFFE435F0CD89F0A42DFEE435F072
:1000A6008067EF4E7005BD80D780C3EF8BF0A4ACA0
:1000B600F0EE8BF0A42CFCE435F0F8EF8AF0A42CDB
:1000C600E5F038FCE433CB8DF0A42CFCE5F03BF8EE
:1000D600EE8AF0A42CFCE5F038F8E433CF89F0A4DE
:1000E6002CFCE5F038CF3400CE89F0A42FFFE5F0E4
:1000F6003EFEE433C98DF0A42EFEE5F039CD8AF03C
:10010600A42FFFE5F03EFEE43DFD33D0E0FB5007B3
:100116000BBB000F020280EC2CFCEF33FFEE33FE2C
:06012600ED33FD0202585A
:10012C00020280EC5D046005E8590470030202765B
:10013C00120241580460F6EC4860F2EC7004FDFECB
:10014C00FF22C860DB2481C85009C39860025006A6
:10015C0002027D9850CAF582E9294B4A7005AB82A0
:10016C0002026C75F0007C1A7880C3EF9BEE9AED5E
:10017C0099400DC3EF9BFFEE9AFEED99FDE842F01E
:10018C00DC23ACF0D0E0FFD0E0FED0E0FDAB822071
:10019C00E7101BEB60BAEC2CFCEF33FFEE33FEEDFB
:1001AC0033FD020258E803F830E705C0F075F000A3
:1001BC00EF2FFFEE33FEED33FD40B830E7C280AADF
:1001CC0075F020800E75F010800575F0087D007EAE
:1001DC00007F003392D530D503120729EC33401041
:1001EC00EF33FFEE33FEED33FDEC33FCD5F0ED22B7
:0E01FC00E5F0247EA2D513CC92E7CDCEFF22F3
:10020A00EDD2E7CD33EC3392D524814006E4FFFEEC
:10021A00FDFC22FCE4CFCECDCC24E0501174FF804B
:10022A00EDC3CC13CCCD13CDCE13CECF13CF0470E8
:07023A00F030D5DE020729B8
:102EF00090013DE0FFA3E0FEA3E0CF900146F0A3E8
:102F0000EEF0A3EFF0900140E0CBF0A3E0CAF0A315
:102F1000E0C9F07F22900149AD82AC831205358D66
:102F2000828C83F0A309E970010ADFEC900140E094
:0A2F3000FBA3E0FAA3E0F902085D3C
:10024100E9D2E7C933E833F892D5EDD2E7CD33EC03
:0702510033FC5002B2D5227C
:10025800EC30E7100FBF000C0EBE00080DBD000407
:100268000BEB6014A2D5EB13FCED92E7FD2274FFB3
:10027800FCFDFEFF22E480F8A2D574FF13FC7D800C
:03028800E480EF20
:1007F800E5082446F582E43401F583E005082290F3
:100808000143300703900146E475F00112078502A1
:1008180005352000E97F2ED2008018EF540F249070
:10082800D43440D4FF30040BEF24BFB41A00500373
:100838002461FFE50960021509050CE50C70020545
:100848000B30070E900143E475F001120785EF02A3
:10085800057B0231697403D2078003E4C207F508F7
:1008680090014312079CE4F509F50BF50CE50960C6
:10087800077F2012083B80F5750AFFC201C200C23B
:1008880002C203C205C206C208120807FF700D3073
:1008980007057F0012084CAF0CAE0B22B4255FC2CF
:1008A800D5C204120807FF24D0B40A00501A75F004
:1008B8000A780930D50508B6FF0106C6A426F62031
:1008C800D5047002D20380D924CFB41A00EF5004A3
:1008D800C2E5D204020B3ED20180C6D20080C0D24B
:1008E8000280BCD2D580BAD20580B47F2012083BE2
:1008F8002002077401B5090040F11207F8FF120839
:100908003B020875D208D20680951207F8FB120739
:10091800F8FA1207F8F94A4B7006793C7A0C7BFF13
:1009280020022EE509602A7E008E8275830012055A
:100938004E60060EEE650A70F0C2D5EBC0E0EAC064
:10094800E0E9C0E0EE120B9FD0E0F9D0E0FAD0E089
:10095800FB120535FF60AAEBC0E0EAC0E0E9C0E0A1
:1009680012083BD0E02401F9D0E03400FAD0E0FBD3
:10097800E50A0460DCD50AD98087D20280A2120B6E
:100988008160F7E50A70010412028BA90A600DE57F
:100998000A600914F50A120C29EF60F3EA30E7023D
:1009A800F404C3995079EAF4250A0430E701E40411
:1009B800F50A800D120B8160C1EA050A250A1202A8
:1009C8008BEA900172F030E701E4250A04D50A04A5
:1009D80020050114120B9FE4C0E0120C299001724B
:1009E800E0601320E70714F0120823802204F0D0F7
:1009F800E014C0E07F00120823E50A600712081A15
:100A0800150A800B30050312081AD0E0020875D0C9
:100A1800E00480C4120B81609EE50A0412028B90E8
:100A28000172EAF0E50A2005026001042404120BB1
:010A38009F1E
:100A390074FF04C0E0120C29120823E50A200502FC
:100A4900600312081AD0E0B50AE87F4512082D9014
:100A59000172E07F2B30E7047F2DF404C0E0120817
:100A69003BD0E075F00A84C0F0120824D0E01208E7
:100A790024020875791080027908C206C208800824
:100A8900D2D5790A8004790AC2D5E50A047002F53B
:100A99000AE4FAFDFEFF1207F8FC7B082001131295
:100AA90007F8FD7B1030000A1207F8FE1207F8FF5D
:100AB9007B20EC3382D592D55013C3E43000069FD6
:100AC900FFE49EFEE42001039DFDE49CFCE4CBF8D9
:100AD900C201EC700CCFCECDCCE824F8F870F380CD
:100AE90017C3EF33FFEE33FEED33FDEC33FCEB338D
:100AF900FB994002FB0FD8E9EB300105F8D0E0C4BF
:100B090048B201C0E00AEC4D4E4F78207B0070C21C
:100B1900EAB50A0040BCC0E0120BA1D0F0D0E02039
:100B29000104C4C0E0C4B201C0F0120824D0F0D559
:100B3900F0EB0208751207A50912530A7D5808E35C
:100B49004C08DF420A814F0A89440A894908F84357
:100B59000A8F5509BC460A1C450986470C5C500892
:100B6900E72D08EB2E090E2B08EF23090C200C4565
:100B79002A08A74800000906E50AB4FF03750A0612
:100B89001207F8FC1207F8FD1207F8FE1207F8FF22
:100B990090016B0202C8790AA2D520031430050915
:100BA900B910020404B9080104A2D52006025001B3
:100BB900042002689202B509005034C0E07F203059
:100BC90003197F30A20272067205500F120BF8C288
:100BD90002C206C205C2087F30800F300503E9C092
:100BE900E012083B300503D0E0F9D0E0B509CC307C
:100BF90005177F30B9100C12083B7F583004077F66
:100C0900788003B9080312083B3002057F2D0208DA
:100C19003B7F202008F87F2B2006F322920280CF09
:100C29007F00B40700500B246BF582E43401F5838F
:100C3900E0FF22286E756C6C2900D2011207F8308A
:100C490001F8C201780930D50108F60208A72D502C
:100C59004349581207F82403B405004001E4900CF5
:100C6900579312082C743A12082CD20375090402FE
:020C79000A7DF2
:10028B00F920E73624F950037907E4F42402FBE55F
:10029B0082158270021583DBF6E024FB501BE960AC
:1002AB0014E4F0E582158270021583E004F0B40AC1
:0D02BB0008E4F0D9EE7401F00A22C2D52249
:1002C800ED33EC3392D5FA602AB4FF33EDC2E77B05
:1002D800FF60067A0279EDE4227A0279F620D504E5
:1002E8007A0279F1224E614E002B494E46002D4983
:1002F8004E4600E47A08F0A3DAFC7B00740722C0BB
:1003080083C082ECC0E0EDC0E0EEC0E0EFC0E0EA00
:1003180075F010A4CAABF075F04DA42BFBE435F0D2
:10032800FCEA2410FAEB34C5FBEC34D9FCEDC2E747
:10033800FF75F056A4F42411C5F0F434C58FF0A469
:100348002AE5F03BE43CF020E7141204F5D0E0FF86
:10035800D0E0FED0E0FDD0E0FC12012F8014F404C0
:100368001204F5D0E0FFD0E0FED0E0FDD0E0FC12B2
:100378000026D082D083E0FAEDD2E7CD33EC3324E7
:1003880082FBE4C3CF33CFCE33CECD33CD33DBF3D3
:100398007B0775F00A846004F0A31B0AE5F0F0A35C
:1003A8008FF0740AA4FFACF08EF0740AA42CFEAC93
:1003B800F050010C8DF0740AA42CFDE435F0F0A384
:0503C800DBDE740722DA
:1003CD00020276E86480F8E933E83360110460F0E6
:1003DD00ED33EC337009E8FCE9FDEAFEEBFF220496
:1003ED0060DED3EB9FEA9EE99DE8C2E78CF0C2F791
:1003FD0095F0400CE8CCF8E9CDF9EACEFAEBCFFB5D
:10040D0012024185D0F05804700320D5B3E8047072
:10041D00075002B2D502028092D5EC0460F7E4CC0D
:10042D00C0E0C398F8603B94186008400DD0E0FB25
:10043D00020258E4FBFAC9FC8028E830E406E4C95E
:10044D00FBE4CAFCE830E305E4C9CACBFCE8540779
:10045D006010F8C3E913F9EA13FAEB13FBEC13FC84
:10046D00D8F130F52FC3E49CFCEF9BFFEE9AFEED27
:10047D0099FDD0E0FBEF4E4D4C701222DB030202D2
:10048D007DEC2CFCEF33FFEE33FEED33FDED30E76D
:10049D00EB020258EF2BFFEE3AFEED39FDD0E0FBFB
:1004AD0050130BBB0003020280ED13FDEE13FEEFA4
:0804BD0013FFEC13FC020258CE
:1004C5003F8000004120000042C80000447A00003F
:1004D500461C400047C35000497424004B189680C1
:1004E5004CBEBC205A0E1BCA6753C21C749DC5AEB8
:1004F500FB60065407601C2323120523EB54386068
:100505000912050F12051E120026ECF8EDF9EEFA98
:10051500EFCB22EB12051E80F1543803241C900406
:10052500C5FE93FC0EEE93FD0EEE930ECE93FF22C9
:102BBB0002328DE493A3F8E493A34003F68001F271
:102BCB0008DFF48029E493A3F85407240CC8C3331B
:102BDB00C4540F4420C8834004F456800146F6DFEA
:102BEB00E4800B01020408102040809030AFE47E9B
:102BFB00019360BCA3FF543F30E509541FFEE493DF
:102C0B00A360010ECF54C025E060A840B8E493A3A5
:102C1B00FAE493A3F8E493A3C8C582C8CAC583CAD0
:102C2B00F0A3C8C582C8CAC583CADFE9DEE780BE88
:0130E00000EF
:10053500BB010689828A83E0225002E722BBFE02C4
:09054500E32289828A83E49322F7
:10054E00BB010CE58229F582E5833AF583E0225062
:10055E0006E92582F8E622BBFE06E92582F8E222AC
:0D056E00E58229F582E5833AF583E49322C6
:10057B00BB010689828A83F0225002F722BBFE015F
:02058B00F32259
:10058D00F8BB010DE58229F582E5833AF583E8F0A4
:10059D00225006E92582C8F622BBFE05E92582C850
:0205AD00F22238
:1005AF00EF8DF0A4A8F0CF8CF0A428CE8DF0A42E60
:0205BF00FE221A
:1005C100C5F0F8A3E028F0C5F0F8E58215827002C5
:0605D1001583E038F02262
:1005D700A3F8E0C5F025F0F0E582158270021583D7
:0605E700E0C838F0E82234
:1005ED00BB010A89828A83F0E5F0A3F0225006F759
:0F05FD0009A7F01922BBFE06F3E5F009F3192256
:10060C00E88FF0A4CC8BF0A42CFCE98EF0A42CFC8D
:10061C008AF0EDA42CFCEA8EF0A4CDA8F08BF0A40B
:10062C002DCC3825F0FDE98FF0A42CCD35F0FCEB6A
:10063C008EF0A4FEA9F0EB8FF0A4CFC5F02ECD392F
:0F064C00FEE43CFCEAA42DCE35F0FDE43CFC229C
:10065B0075F008758200EF2FFFEE33FECD33CDCC56
:10066B0033CCC58233C5829BED9AEC99E5829840D9
:10067B000CF582EE9BFEED9AFDEC99FC0FD5F0D6B6
:10068B00E4CEFBE4CDFAE4CCF9A88222B800C1B9E0
:10069B000059BA002DEC8BF084CFCECDFCE5F0CB1E
:1006AB00F97818EF2FFFEE33FEED33FDEC33FCEB57
:1006BB0033FB10D703994004EB99FB0FD8E5E4F912
:1006CB00FA227818EF2FFFEE33FEED33FDEC33FCFF
:1006DB00C933C910D7059BE99A4007EC9BFCE99AF3
:1006EB00F90FD8E0E4C9FAE4CCFB2275F010EF2F38
:1006FB00FFEE33FEED33FDCC33CCC833C810D70738
:10070B009BEC9AE899400AED9BFDEC9AFCE899F872
:0E071B000FD5F0DAE4CDFBE4CCFAE4C8F92205
:0E072900C3E49FFFE49EFEE49DFDE49CFC22E1
:10073700EB9FF5F0EA9E42F0E99D42F0E89C45F018
:01074700228F
:0C074800ECF0A3EDF0A3EEF0A3EFF02224
:10075400A8828583F0D083D08212076B12076B12B4
:10076400076B12076BE473E493A3C583C5F0C583D9
:10077400C8C582C8F0A3C583C5F0C583C8C582C8EF
:010784002252
:10078500F8E0FBA3A3E0F925F0F0E58215827002FD
:070795001583E0FA38F022A1
:09079C00EBF0A3EAF0A3E9F0225E
:1007A500D083D082F8E4937012740193700DA3A3E3
:1007B50093F8740193F5828883E4737402936860F7
:0607C500EFA3A3A380DFF7
:1007CB00EC8EF0A4CCC5F0CCCDF8EFA4CEC5F02DBB
:1007DB00FDE43CFCE8A42EC8C5F03DFDE43CFCEF79
:0D07EB00A4FFE5F028FEE43DFDE43CFC2207
:10316900EFB40A07740D123174740A309811A899D2
:10317900B8130CC2983098FDA899C298B811F630C6
:0731890099FDC299F599229E
:00000001FF
